{
  "contractName": "Conversions",
  "abi": [
    {
      "inputs": [],
      "stateMutability": "nonpayable",
      "type": "constructor"
    },
    {
      "anonymous": false,
      "inputs": [
        {
          "indexed": true,
          "internalType": "address",
          "name": "previousOwner",
          "type": "address"
        },
        {
          "indexed": true,
          "internalType": "address",
          "name": "newOwner",
          "type": "address"
        }
      ],
      "name": "OwnershipTransferred",
      "type": "event"
    },
    {
      "inputs": [],
      "name": "owner",
      "outputs": [
        {
          "internalType": "address",
          "name": "",
          "type": "address"
        }
      ],
      "stateMutability": "view",
      "type": "function",
      "constant": true
    },
    {
      "inputs": [],
      "name": "renounceOwnership",
      "outputs": [],
      "stateMutability": "nonpayable",
      "type": "function"
    },
    {
      "inputs": [
        {
          "internalType": "address",
          "name": "newOwner",
          "type": "address"
        }
      ],
      "name": "transferOwnership",
      "outputs": [],
      "stateMutability": "nonpayable",
      "type": "function"
    },
    {
      "inputs": [],
      "name": "getLatestPrice",
      "outputs": [
        {
          "internalType": "int256",
          "name": "",
          "type": "int256"
        }
      ],
      "stateMutability": "view",
      "type": "function",
      "constant": true
    },
    {
      "inputs": [],
      "name": "getDecimals",
      "outputs": [
        {
          "internalType": "uint8",
          "name": "",
          "type": "uint8"
        }
      ],
      "stateMutability": "view",
      "type": "function",
      "constant": true
    },
    {
      "inputs": [
        {
          "internalType": "string",
          "name": "_to",
          "type": "string"
        },
        {
          "internalType": "string",
          "name": "_from",
          "type": "string"
        }
      ],
      "name": "currencyConversion",
      "outputs": [
        {
          "internalType": "int256",
          "name": "",
          "type": "int256"
        }
      ],
      "stateMutability": "nonpayable",
      "type": "function"
    }
  ],
  "bytecode": "0x608060405234801561001057600080fd5b5061002d61002261008760201b60201c565b61008f60201b60201c565b739326bfa02add2366b30bacb125260af641031331600160006101000a81548173ffffffffffffffffffffffffffffffffffffffff021916908373ffffffffffffffffffffffffffffffffffffffff160217905550610153565b600033905090565b60008060009054906101000a900473ffffffffffffffffffffffffffffffffffffffff169050816000806101000a81548173ffffffffffffffffffffffffffffffffffffffff021916908373ffffffffffffffffffffffffffffffffffffffff1602179055508173ffffffffffffffffffffffffffffffffffffffff168173ffffffffffffffffffffffffffffffffffffffff167f8be0079c531659141344cd1fd0a4f28419497f9722a3daafe3b4186f6b6457e060405160405180910390a35050565b610a8a806101626000396000f3fe608060405234801561001057600080fd5b50600436106100625760003560e01c8063715018a6146100675780638da5cb5b146100715780638e15f4731461008f578063f0141d84146100ad578063f2fde38b146100cb578063fff5b3d6146100e7575b600080fd5b61006f610117565b005b61007961019f565b604051610086919061051c565b60405180910390f35b6100976101c8565b6040516100a49190610550565b60405180910390f35b6100b5610269565b6040516100c29190610587565b60405180910390f35b6100e560048036038101906100e091906105e2565b610306565b005b61010160048036038101906100fc9190610755565b6103fd565b60405161010e9190610550565b60405180910390f35b61011f61040f565b73ffffffffffffffffffffffffffffffffffffffff1661013d61019f565b73ffffffffffffffffffffffffffffffffffffffff1614610193576040517f08c379a000000000000000000000000000000000000000000000000000000000815260040161018a9061082a565b60405180910390fd5b61019d6000610417565b565b60008060009054906101000a900473ffffffffffffffffffffffffffffffffffffffff16905090565b600080600160009054906101000a900473ffffffffffffffffffffffffffffffffffffffff1673ffffffffffffffffffffffffffffffffffffffff1663feaf968c6040518163ffffffff1660e01b815260040160a060405180830381865afa158015610238573d6000803e3d6000fd5b505050506040513d601f19601f8201168201806040525081019061025c91906108ee565b5050509150508091505090565b600080600160009054906101000a900473ffffffffffffffffffffffffffffffffffffffff1673ffffffffffffffffffffffffffffffffffffffff1663313ce5676040518163ffffffff1660e01b8152600401602060405180830381865afa1580156102d9573d6000803e3d6000fd5b505050506040513d601f19601f820116820180604052508101906102fd9190610995565b90508091505090565b61030e61040f565b73ffffffffffffffffffffffffffffffffffffffff1661032c61019f565b73ffffffffffffffffffffffffffffffffffffffff1614610382576040517f08c379a00000000000000000000000000000000000000000000000000000000081526004016103799061082a565b60405180910390fd5b600073ffffffffffffffffffffffffffffffffffffffff168173ffffffffffffffffffffffffffffffffffffffff16036103f1576040517f08c379a00000000000000000000000000000000000000000000000000000000081526004016103e890610a34565b60405180910390fd5b6103fa81610417565b50565b60006104076101c8565b905092915050565b600033905090565b60008060009054906101000a900473ffffffffffffffffffffffffffffffffffffffff169050816000806101000a81548173ffffffffffffffffffffffffffffffffffffffff021916908373ffffffffffffffffffffffffffffffffffffffff1602179055508173ffffffffffffffffffffffffffffffffffffffff168173ffffffffffffffffffffffffffffffffffffffff167f8be0079c531659141344cd1fd0a4f28419497f9722a3daafe3b4186f6b6457e060405160405180910390a35050565b600073ffffffffffffffffffffffffffffffffffffffff82169050919050565b6000610506826104db565b9050919050565b610516816104fb565b82525050565b6000602082019050610531600083018461050d565b92915050565b6000819050919050565b61054a81610537565b82525050565b60006020820190506105656000830184610541565b92915050565b600060ff82169050919050565b6105818161056b565b82525050565b600060208201905061059c6000830184610578565b92915050565b6000604051905090565b600080fd5b600080fd5b6105bf816104fb565b81146105ca57600080fd5b50565b6000813590506105dc816105b6565b92915050565b6000602082840312156105f8576105f76105ac565b5b6000610606848285016105cd565b91505092915050565b600080fd5b600080fd5b6000601f19601f8301169050919050565b7f4e487b7100000000000000000000000000000000000000000000000000000000600052604160045260246000fd5b61066282610619565b810181811067ffffffffffffffff821117156106815761068061062a565b5b80604052505050565b60006106946105a2565b90506106a08282610659565b919050565b600067ffffffffffffffff8211156106c0576106bf61062a565b5b6106c982610619565b9050602081019050919050565b82818337600083830152505050565b60006106f86106f3846106a5565b61068a565b90508281526020810184848401111561071457610713610614565b5b61071f8482856106d6565b509392505050565b600082601f83011261073c5761073b61060f565b5b813561074c8482602086016106e5565b91505092915050565b6000806040838503121561076c5761076b6105ac565b5b600083013567ffffffffffffffff81111561078a576107896105b1565b5b61079685828601610727565b925050602083013567ffffffffffffffff8111156107b7576107b66105b1565b5b6107c385828601610727565b9150509250929050565b600082825260208201905092915050565b7f4f776e61626c653a2063616c6c6572206973206e6f7420746865206f776e6572600082015250565b60006108146020836107cd565b915061081f826107de565b602082019050919050565b6000602082019050818103600083015261084381610807565b9050919050565b600069ffffffffffffffffffff82169050919050565b6108698161084a565b811461087457600080fd5b50565b60008151905061088681610860565b92915050565b61089581610537565b81146108a057600080fd5b50565b6000815190506108b28161088c565b92915050565b6000819050919050565b6108cb816108b8565b81146108d657600080fd5b50565b6000815190506108e8816108c2565b92915050565b600080600080600060a0868803121561090a576109096105ac565b5b600061091888828901610877565b9550506020610929888289016108a3565b945050604061093a888289016108d9565b935050606061094b888289016108d9565b925050608061095c88828901610877565b9150509295509295909350565b6109728161056b565b811461097d57600080fd5b50565b60008151905061098f81610969565b92915050565b6000602082840312156109ab576109aa6105ac565b5b60006109b984828501610980565b91505092915050565b7f4f776e61626c653a206e6577206f776e657220697320746865207a65726f206160008201527f6464726573730000000000000000000000000000000000000000000000000000602082015250565b6000610a1e6026836107cd565b9150610a29826109c2565b604082019050919050565b60006020820190508181036000830152610a4d81610a11565b905091905056fea2646970667358221220755c065d201df24d71be8bf88a7b93fdd0243ffa411aae45d6bfba8c2c1f48c964736f6c634300080d0033",
  "immutableReferences": {},
  "source": "// SPDX-License-Identifier: MIT\npragma solidity >=0.4.22 <0.9.0;\n\nimport \"@openzeppelin/contracts/access/Ownable.sol\";\nimport \"@chainlink/contracts/src/v0.8/interfaces/AggregatorV3Interface.sol\";\n\ncontract Conversions is Ownable {\n\n  AggregatorV3Interface internal priceFeed;\n\n  /**\n   * Network: Kovan\n   * Aggregator: ETH/USD\n   * Address: 0x9326BFA02ADD2366b30bacB125260Af641031331\n   */\n  constructor() {\n    priceFeed = AggregatorV3Interface(0x9326BFA02ADD2366b30bacB125260Af641031331);\n  }\n\n  /**\n   * Returns the latest price\n   */\n  function getLatestPrice() public view returns (int) {\n    (\n      /*uint80 roundID*/,\n      int price,\n      /*uint startedAt*/,\n      /*uint timeStamp*/,\n      /*uint80 answeredInRound*/\n    ) = priceFeed.latestRoundData();\n    return price;\n  }\n\n  function getDecimals() public view returns (uint8) {\n    uint8 decimals = priceFeed.decimals();\n    return decimals;\n  }\n\n  function currencyConversion(string memory _to, string memory _from) public returns (int) {\n    return getLatestPrice();\n  }\n}\n",
  "sourcePath": "/Users/laetadevelopment/Documents/CryptoCalc/contracts/Conversions.sol",
  "compiler": {
    "name": "solc",
    "version": "0.8.13+commit.abaa5c0e.Emscripten.clang"
  },
  "schemaVersion": "3.4.6",
  "updatedAt": "2022-05-04T21:54:25.439Z",
  "networkType": "ethereum",
  "devdoc": {
    "kind": "dev",
    "methods": {
      "owner()": {
        "details": "Returns the address of the current owner."
      },
      "renounceOwnership()": {
        "details": "Leaves the contract without owner. It will not be possible to call `onlyOwner` functions anymore. Can only be called by the current owner. NOTE: Renouncing ownership will leave the contract without an owner, thereby removing any functionality that is only available to the owner."
      },
      "transferOwnership(address)": {
        "details": "Transfers ownership of the contract to a new account (`newOwner`). Can only be called by the current owner."
      }
    },
    "version": 1
  },
  "userdoc": {
    "kind": "user",
    "methods": {
      "constructor": {
        "notice": "Network: Kovan Aggregator: ETH/USD Address: 0x9326BFA02ADD2366b30bacB125260Af641031331"
      },
      "getLatestPrice()": {
        "notice": "Returns the latest price"
      }
    },
    "version": 1
  }
}