{
  "contractName": "Conversions",
  "abi": [
    {
      "inputs": [],
      "stateMutability": "nonpayable",
      "type": "constructor"
    },
    {
      "anonymous": false,
      "inputs": [
        {
          "indexed": true,
          "internalType": "address",
          "name": "previousOwner",
          "type": "address"
        },
        {
          "indexed": true,
          "internalType": "address",
          "name": "newOwner",
          "type": "address"
        }
      ],
      "name": "OwnershipTransferred",
      "type": "event"
    },
    {
      "inputs": [],
      "name": "owner",
      "outputs": [
        {
          "internalType": "address",
          "name": "",
          "type": "address"
        }
      ],
      "stateMutability": "view",
      "type": "function"
    },
    {
      "inputs": [],
      "name": "renounceOwnership",
      "outputs": [],
      "stateMutability": "nonpayable",
      "type": "function"
    },
    {
      "inputs": [
        {
          "internalType": "address",
          "name": "newOwner",
          "type": "address"
        }
      ],
      "name": "transferOwnership",
      "outputs": [],
      "stateMutability": "nonpayable",
      "type": "function"
    },
    {
      "inputs": [],
      "name": "getLatestPrice",
      "outputs": [
        {
          "internalType": "int256",
          "name": "",
          "type": "int256"
        }
      ],
      "stateMutability": "view",
      "type": "function"
    },
    {
      "inputs": [
        {
          "internalType": "string",
          "name": "_from",
          "type": "string"
        }
      ],
      "name": "currencyConversion",
      "outputs": [
        {
          "internalType": "int256",
          "name": "value",
          "type": "int256"
        },
        {
          "internalType": "uint8",
          "name": "decimals",
          "type": "uint8"
        }
      ],
      "stateMutability": "view",
      "type": "function"
    }
  ],
  "bytecode": "0x608060405234801561001057600080fd5b5061002d61002261008760201b60201c565b61008f60201b60201c565b735f4ec3df9cbd43714fe2740f5e3616155c5b8419600160006101000a81548173ffffffffffffffffffffffffffffffffffffffff021916908373ffffffffffffffffffffffffffffffffffffffff160217905550610153565b600033905090565b60008060009054906101000a900473ffffffffffffffffffffffffffffffffffffffff169050816000806101000a81548173ffffffffffffffffffffffffffffffffffffffff021916908373ffffffffffffffffffffffffffffffffffffffff1602179055508173ffffffffffffffffffffffffffffffffffffffff168173ffffffffffffffffffffffffffffffffffffffff167f8be0079c531659141344cd1fd0a4f28419497f9722a3daafe3b4186f6b6457e060405160405180910390a35050565b610d2a806101626000396000f3fe608060405234801561001057600080fd5b50600436106100575760003560e01c8063715018a61461005c57806388596483146100665780638da5cb5b146100975780638e15f473146100b5578063f2fde38b146100d3575b600080fd5b6100646100ef565b005b610080600480360381019061007b91906106db565b610177565b60405161008e929190610759565b60405180910390f35b61009f6102f4565b6040516100ac91906107c3565b60405180910390f35b6100bd61031d565b6040516100ca91906107de565b60405180910390f35b6100ed60048036038101906100e89190610825565b6103be565b005b6100f76104b5565b73ffffffffffffffffffffffffffffffffffffffff166101156102f4565b73ffffffffffffffffffffffffffffffffffffffff161461016b576040517f08c379a0000000000000000000000000000000000000000000000000000000008152600401610162906108af565b60405180910390fd5b61017560006104bd565b565b600080600061018461031d565b90506000600160009054906101000a900473ffffffffffffffffffffffffffffffffffffffff1673ffffffffffffffffffffffffffffffffffffffff1663313ce5676040518163ffffffff1660e01b8152600401602060405180830381865afa1580156101f5573d6000803e3d6000fd5b505050506040513d601f19601f8201168201806040525081019061021991906108fb565b905060405160200161022a9061097f565b60405160208183030381529060405280519060200120856040516020016102519190610a03565b60405160208183030381529060405280519060200120036102795781819350935050506102ef565b60405160200161028890610a66565b60405160208183030381529060405280519060200120856040516020016102af9190610a03565b60405160208183030381529060405280519060200120036102ec5781662386f26fc100006102dd9190610ad9565b915081819350935050506102ef565b50505b915091565b60008060009054906101000a900473ffffffffffffffffffffffffffffffffffffffff16905090565b600080600160009054906101000a900473ffffffffffffffffffffffffffffffffffffffff1673ffffffffffffffffffffffffffffffffffffffff1663feaf968c6040518163ffffffff1660e01b815260040160a060405180830381865afa15801561038d573d6000803e3d6000fd5b505050506040513d601f19601f820116820180604052508101906103b19190610be7565b5050509150508091505090565b6103c66104b5565b73ffffffffffffffffffffffffffffffffffffffff166103e46102f4565b73ffffffffffffffffffffffffffffffffffffffff161461043a576040517f08c379a0000000000000000000000000000000000000000000000000000000008152600401610431906108af565b60405180910390fd5b600073ffffffffffffffffffffffffffffffffffffffff168173ffffffffffffffffffffffffffffffffffffffff16036104a9576040517f08c379a00000000000000000000000000000000000000000000000000000000081526004016104a090610cd4565b60405180910390fd5b6104b2816104bd565b50565b600033905090565b60008060009054906101000a900473ffffffffffffffffffffffffffffffffffffffff169050816000806101000a81548173ffffffffffffffffffffffffffffffffffffffff021916908373ffffffffffffffffffffffffffffffffffffffff1602179055508173ffffffffffffffffffffffffffffffffffffffff168173ffffffffffffffffffffffffffffffffffffffff167f8be0079c531659141344cd1fd0a4f28419497f9722a3daafe3b4186f6b6457e060405160405180910390a35050565b6000604051905090565b600080fd5b600080fd5b600080fd5b600080fd5b6000601f19601f8301169050919050565b7f4e487b7100000000000000000000000000000000000000000000000000000000600052604160045260246000fd5b6105e88261059f565b810181811067ffffffffffffffff82111715610607576106066105b0565b5b80604052505050565b600061061a610581565b905061062682826105df565b919050565b600067ffffffffffffffff821115610646576106456105b0565b5b61064f8261059f565b9050602081019050919050565b82818337600083830152505050565b600061067e6106798461062b565b610610565b90508281526020810184848401111561069a5761069961059a565b5b6106a584828561065c565b509392505050565b600082601f8301126106c2576106c1610595565b5b81356106d284826020860161066b565b91505092915050565b6000602082840312156106f1576106f061058b565b5b600082013567ffffffffffffffff81111561070f5761070e610590565b5b61071b848285016106ad565b91505092915050565b6000819050919050565b61073781610724565b82525050565b600060ff82169050919050565b6107538161073d565b82525050565b600060408201905061076e600083018561072e565b61077b602083018461074a565b9392505050565b600073ffffffffffffffffffffffffffffffffffffffff82169050919050565b60006107ad82610782565b9050919050565b6107bd816107a2565b82525050565b60006020820190506107d860008301846107b4565b92915050565b60006020820190506107f3600083018461072e565b92915050565b610802816107a2565b811461080d57600080fd5b50565b60008135905061081f816107f9565b92915050565b60006020828403121561083b5761083a61058b565b5b600061084984828501610810565b91505092915050565b600082825260208201905092915050565b7f4f776e61626c653a2063616c6c6572206973206e6f7420746865206f776e6572600082015250565b6000610899602083610852565b91506108a482610863565b602082019050919050565b600060208201905081810360008301526108c88161088c565b9050919050565b6108d88161073d565b81146108e357600080fd5b50565b6000815190506108f5816108cf565b92915050565b6000602082840312156109115761091061058b565b5b600061091f848285016108e6565b91505092915050565b600081905092915050565b7f4554480000000000000000000000000000000000000000000000000000000000600082015250565b6000610969600383610928565b915061097482610933565b600382019050919050565b600061098a8261095c565b9150819050919050565b600081519050919050565b60005b838110156109bd5780820151818401526020810190506109a2565b838111156109cc576000848401525b50505050565b60006109dd82610994565b6109e78185610928565b93506109f781856020860161099f565b80840191505092915050565b6000610a0f82846109d2565b915081905092915050565b7f5553440000000000000000000000000000000000000000000000000000000000600082015250565b6000610a50600383610928565b9150610a5b82610a1a565b600382019050919050565b6000610a7182610a43565b9150819050919050565b7f4e487b7100000000000000000000000000000000000000000000000000000000600052601260045260246000fd5b7f4e487b7100000000000000000000000000000000000000000000000000000000600052601160045260246000fd5b6000610ae482610724565b9150610aef83610724565b925082610aff57610afe610a7b565b5b600160000383147f800000000000000000000000000000000000000000000000000000000000000083141615610b3857610b37610aaa565b5b828205905092915050565b600069ffffffffffffffffffff82169050919050565b610b6281610b43565b8114610b6d57600080fd5b50565b600081519050610b7f81610b59565b92915050565b610b8e81610724565b8114610b9957600080fd5b50565b600081519050610bab81610b85565b92915050565b6000819050919050565b610bc481610bb1565b8114610bcf57600080fd5b50565b600081519050610be181610bbb565b92915050565b600080600080600060a08688031215610c0357610c0261058b565b5b6000610c1188828901610b70565b9550506020610c2288828901610b9c565b9450506040610c3388828901610bd2565b9350506060610c4488828901610bd2565b9250506080610c5588828901610b70565b9150509295509295909350565b7f4f776e61626c653a206e6577206f776e657220697320746865207a65726f206160008201527f6464726573730000000000000000000000000000000000000000000000000000602082015250565b6000610cbe602683610852565b9150610cc982610c62565b604082019050919050565b60006020820190508181036000830152610ced81610cb1565b905091905056fea264697066735822122040e585f005700f7087c01488b846ec39592a580cd378be6b86f4aa05c045a76564736f6c634300080d0033",
  "immutableReferences": {},
  "source": "// SPDX-License-Identifier: MIT\npragma solidity >=0.4.22 <0.9.0;\n\nimport \"@openzeppelin/contracts/access/Ownable.sol\";\nimport \"@chainlink/contracts/src/v0.8/interfaces/AggregatorV3Interface.sol\";\n\ncontract Conversions is Ownable {\n\n  AggregatorV3Interface internal priceFeed;\n\n  /**\n   * Network: Mainnet\n   * Aggregator: ETH/USD\n   * Address: 0x5f4eC3Df9cbd43714FE2740f5E3616155c5b8419\n   */\n  constructor() {\n    priceFeed = AggregatorV3Interface(0x5f4eC3Df9cbd43714FE2740f5E3616155c5b8419);\n  }\n\n  /**\n   * Returns the latest price\n   */\n  function getLatestPrice() public view returns (int) {\n    (\n      /*uint80 roundID*/,\n      int price,\n      /*uint startedAt*/,\n      /*uint timeStamp*/,\n      /*uint80 answeredInRound*/\n    ) = priceFeed.latestRoundData();\n    return price;\n  }\n\n  function currencyConversion(string memory _from) public view returns (int value, uint8 decimals) {\n    int price = getLatestPrice();\n    uint8 decimalPlaces = priceFeed.decimals();\n    if (keccak256(abi.encodePacked(_from)) == keccak256(abi.encodePacked(\"ETH\"))) {\n      return (price, decimalPlaces);\n    } else if (keccak256(abi.encodePacked(_from)) == keccak256(abi.encodePacked(\"USD\"))) {\n      price = (10000000000000000 / price);\n      return (price, decimalPlaces);\n    }\n  }\n}\n",
  "sourcePath": "/Users/laetadevelopment/Documents/CryptoCalc/contracts/Conversions.sol",
  "compiler": {
    "name": "solc",
    "version": "0.8.13+commit.abaa5c0e.Emscripten.clang"
  },
  "schemaVersion": "3.4.6",
  "updatedAt": "2022-05-07T02:29:39.737Z",
  "devdoc": {
    "kind": "dev",
    "methods": {
      "owner()": {
        "details": "Returns the address of the current owner."
      },
      "renounceOwnership()": {
        "details": "Leaves the contract without owner. It will not be possible to call `onlyOwner` functions anymore. Can only be called by the current owner. NOTE: Renouncing ownership will leave the contract without an owner, thereby removing any functionality that is only available to the owner."
      },
      "transferOwnership(address)": {
        "details": "Transfers ownership of the contract to a new account (`newOwner`). Can only be called by the current owner."
      }
    },
    "version": 1
  },
  "userdoc": {
    "kind": "user",
    "methods": {
      "constructor": {
        "notice": "Network: Mainnet Aggregator: ETH/USD Address: 0x5f4eC3Df9cbd43714FE2740f5E3616155c5b8419"
      },
      "getLatestPrice()": {
        "notice": "Returns the latest price"
      }
    },
    "version": 1
  }
}