{
  "contractName": "Conversions",
  "abi": [
    {
      "inputs": [],
      "stateMutability": "nonpayable",
      "type": "constructor"
    },
    {
      "anonymous": false,
      "inputs": [
        {
          "indexed": true,
          "internalType": "address",
          "name": "previousOwner",
          "type": "address"
        },
        {
          "indexed": true,
          "internalType": "address",
          "name": "newOwner",
          "type": "address"
        }
      ],
      "name": "OwnershipTransferred",
      "type": "event"
    },
    {
      "inputs": [],
      "name": "owner",
      "outputs": [
        {
          "internalType": "address",
          "name": "",
          "type": "address"
        }
      ],
      "stateMutability": "view",
      "type": "function"
    },
    {
      "inputs": [],
      "name": "renounceOwnership",
      "outputs": [],
      "stateMutability": "nonpayable",
      "type": "function"
    },
    {
      "inputs": [
        {
          "internalType": "address",
          "name": "newOwner",
          "type": "address"
        }
      ],
      "name": "transferOwnership",
      "outputs": [],
      "stateMutability": "nonpayable",
      "type": "function"
    },
    {
      "inputs": [],
      "name": "getLatestPrice",
      "outputs": [
        {
          "internalType": "int256",
          "name": "",
          "type": "int256"
        }
      ],
      "stateMutability": "view",
      "type": "function"
    },
    {
      "inputs": [],
      "name": "getDecimals",
      "outputs": [
        {
          "internalType": "uint8",
          "name": "",
          "type": "uint8"
        }
      ],
      "stateMutability": "view",
      "type": "function"
    }
  ],
  "bytecode": "0x608060405234801561001057600080fd5b5061002d61002261008760201b60201c565b61008f60201b60201c565b739326bfa02add2366b30bacb125260af641031331600160006101000a81548173ffffffffffffffffffffffffffffffffffffffff021916908373ffffffffffffffffffffffffffffffffffffffff160217905550610153565b600033905090565b60008060009054906101000a900473ffffffffffffffffffffffffffffffffffffffff169050816000806101000a81548173ffffffffffffffffffffffffffffffffffffffff021916908373ffffffffffffffffffffffffffffffffffffffff1602179055508173ffffffffffffffffffffffffffffffffffffffff168173ffffffffffffffffffffffffffffffffffffffff167f8be0079c531659141344cd1fd0a4f28419497f9722a3daafe3b4186f6b6457e060405160405180910390a35050565b610870806101626000396000f3fe608060405234801561001057600080fd5b50600436106100575760003560e01c8063715018a61461005c5780638da5cb5b146100665780638e15f47314610084578063f0141d84146100a2578063f2fde38b146100c0575b600080fd5b6100646100dc565b005b61006e610164565b60405161007b91906104cf565b60405180910390f35b61008c61018d565b6040516100999190610503565b60405180910390f35b6100aa61022e565b6040516100b7919061053a565b60405180910390f35b6100da60048036038101906100d59190610586565b6102cb565b005b6100e46103c2565b73ffffffffffffffffffffffffffffffffffffffff16610102610164565b73ffffffffffffffffffffffffffffffffffffffff1614610158576040517f08c379a000000000000000000000000000000000000000000000000000000000815260040161014f90610610565b60405180910390fd5b61016260006103ca565b565b60008060009054906101000a900473ffffffffffffffffffffffffffffffffffffffff16905090565b600080600160009054906101000a900473ffffffffffffffffffffffffffffffffffffffff1673ffffffffffffffffffffffffffffffffffffffff1663feaf968c6040518163ffffffff1660e01b815260040160a060405180830381865afa1580156101fd573d6000803e3d6000fd5b505050506040513d601f19601f8201168201806040525081019061022191906106d4565b5050509150508091505090565b600080600160009054906101000a900473ffffffffffffffffffffffffffffffffffffffff1673ffffffffffffffffffffffffffffffffffffffff1663313ce5676040518163ffffffff1660e01b8152600401602060405180830381865afa15801561029e573d6000803e3d6000fd5b505050506040513d601f19601f820116820180604052508101906102c2919061077b565b90508091505090565b6102d36103c2565b73ffffffffffffffffffffffffffffffffffffffff166102f1610164565b73ffffffffffffffffffffffffffffffffffffffff1614610347576040517f08c379a000000000000000000000000000000000000000000000000000000000815260040161033e90610610565b60405180910390fd5b600073ffffffffffffffffffffffffffffffffffffffff168173ffffffffffffffffffffffffffffffffffffffff16036103b6576040517f08c379a00000000000000000000000000000000000000000000000000000000081526004016103ad9061081a565b60405180910390fd5b6103bf816103ca565b50565b600033905090565b60008060009054906101000a900473ffffffffffffffffffffffffffffffffffffffff169050816000806101000a81548173ffffffffffffffffffffffffffffffffffffffff021916908373ffffffffffffffffffffffffffffffffffffffff1602179055508173ffffffffffffffffffffffffffffffffffffffff168173ffffffffffffffffffffffffffffffffffffffff167f8be0079c531659141344cd1fd0a4f28419497f9722a3daafe3b4186f6b6457e060405160405180910390a35050565b600073ffffffffffffffffffffffffffffffffffffffff82169050919050565b60006104b98261048e565b9050919050565b6104c9816104ae565b82525050565b60006020820190506104e460008301846104c0565b92915050565b6000819050919050565b6104fd816104ea565b82525050565b600060208201905061051860008301846104f4565b92915050565b600060ff82169050919050565b6105348161051e565b82525050565b600060208201905061054f600083018461052b565b92915050565b600080fd5b610563816104ae565b811461056e57600080fd5b50565b6000813590506105808161055a565b92915050565b60006020828403121561059c5761059b610555565b5b60006105aa84828501610571565b91505092915050565b600082825260208201905092915050565b7f4f776e61626c653a2063616c6c6572206973206e6f7420746865206f776e6572600082015250565b60006105fa6020836105b3565b9150610605826105c4565b602082019050919050565b60006020820190508181036000830152610629816105ed565b9050919050565b600069ffffffffffffffffffff82169050919050565b61064f81610630565b811461065a57600080fd5b50565b60008151905061066c81610646565b92915050565b61067b816104ea565b811461068657600080fd5b50565b60008151905061069881610672565b92915050565b6000819050919050565b6106b18161069e565b81146106bc57600080fd5b50565b6000815190506106ce816106a8565b92915050565b600080600080600060a086880312156106f0576106ef610555565b5b60006106fe8882890161065d565b955050602061070f88828901610689565b9450506040610720888289016106bf565b9350506060610731888289016106bf565b92505060806107428882890161065d565b9150509295509295909350565b6107588161051e565b811461076357600080fd5b50565b6000815190506107758161074f565b92915050565b60006020828403121561079157610790610555565b5b600061079f84828501610766565b91505092915050565b7f4f776e61626c653a206e6577206f776e657220697320746865207a65726f206160008201527f6464726573730000000000000000000000000000000000000000000000000000602082015250565b60006108046026836105b3565b915061080f826107a8565b604082019050919050565b60006020820190508181036000830152610833816107f7565b905091905056fea2646970667358221220898f7f560135aed9cabd662fe85242cbd5b76ec4baa2e2d6d643650e6f4a8eff64736f6c634300080d0033",
  "immutableReferences": {},
  "source": "// SPDX-License-Identifier: MIT\npragma solidity >=0.4.22 <0.9.0;\n\nimport \"@openzeppelin/contracts/access/Ownable.sol\";\nimport \"@chainlink/contracts/src/v0.8/interfaces/AggregatorV3Interface.sol\";\n\ncontract Conversions is Ownable {\n\n  AggregatorV3Interface internal priceFeed;\n\n  /**\n   * Network: Kovan\n   * Aggregator: ETH/USD\n   * Address: 0x9326BFA02ADD2366b30bacB125260Af641031331\n   */\n  constructor() {\n    priceFeed = AggregatorV3Interface(0x9326BFA02ADD2366b30bacB125260Af641031331);\n  }\n\n  /**\n   * Returns the latest price\n   */\n  function getLatestPrice() public view returns (int) {\n    (\n      /*uint80 roundID*/,\n      int price,\n      /*uint startedAt*/,\n      /*uint timeStamp*/,\n      /*uint80 answeredInRound*/\n    ) = priceFeed.latestRoundData();\n    return price;\n  }\n\n  function getDecimals() public view returns (uint8) {\n    uint8 decimals = priceFeed.decimals();\n    return decimals;\n  }\n\n  // function _getDecimals() internal returns (uint8) {\n  //   uint8 decimals = priceFeed.decimals();\n  //   return decimals;\n  // }\n\n  // function _getConversionValue(string _currencyFrom, string _currencyTo) internal returns (uint) {\n  //   // TODO: get value of correct currency\n  //   uint value = getLatestPrice();\n  //   return value;\n  // }\n\n  // function convert(uint _amountFrom, string _currencyFrom, string _currencyTo) internal returns (uint) {\n  //   uint conversionValue = _getConversionValue(_currencyFrom, _currencyTo);\n  //   uint convertAmount = conversionValue * _amountFrom;\n  //   return convertAmount;\n  // }\n\n  // function createConversion(uint _startingAmount, string _startingCurrency, string _endingCurrency, uint _conversionFee, string _conversionFeeCurrency) public returns (uint) {\n  //   uint conversionAmount = convert(_startingAmount, _startingCurrency, _endingCurrency);\n  //   uint feeAmount = convert(_endingCurrency, _conversionFee, _conversionFeeCurrency);\n  //   uint conversion = conversionAmount - feeAmount;\n  //   return conversion;\n  // }\n}",
  "sourcePath": "/Users/laetadevelopment/Documents/CryptoCalc/contracts/Conversions.sol",
  "compiler": {
    "name": "solc",
    "version": "0.8.13+commit.abaa5c0e.Emscripten.clang"
  },
  "schemaVersion": "3.4.6",
  "updatedAt": "2022-05-04T15:44:27.545Z",
  "devdoc": {
    "kind": "dev",
    "methods": {
      "owner()": {
        "details": "Returns the address of the current owner."
      },
      "renounceOwnership()": {
        "details": "Leaves the contract without owner. It will not be possible to call `onlyOwner` functions anymore. Can only be called by the current owner. NOTE: Renouncing ownership will leave the contract without an owner, thereby removing any functionality that is only available to the owner."
      },
      "transferOwnership(address)": {
        "details": "Transfers ownership of the contract to a new account (`newOwner`). Can only be called by the current owner."
      }
    },
    "version": 1
  },
  "userdoc": {
    "kind": "user",
    "methods": {
      "constructor": {
        "notice": "Network: Kovan Aggregator: ETH/USD Address: 0x9326BFA02ADD2366b30bacB125260Af641031331"
      },
      "getLatestPrice()": {
        "notice": "Returns the latest price"
      }
    },
    "version": 1
  }
}